{
  "contractName": "car",
  "abi": [
    {
      "constant": true,
      "inputs": [],
      "name": "carCount",
      "outputs": [
        {
          "internalType": "uint256",
          "name": "",
          "type": "uint256"
        }
      ],
      "payable": false,
      "stateMutability": "view",
      "type": "function"
    },
    {
      "constant": false,
      "inputs": [],
      "name": "getCarCount",
      "outputs": [
        {
          "internalType": "uint256",
          "name": "",
          "type": "uint256"
        }
      ],
      "payable": false,
      "stateMutability": "nonpayable",
      "type": "function"
    }
  ],
  "bytecode": "0x60806040526001600055348015601457600080fd5b506096806100236000396000f3fe6080604052348015600f57600080fd5b506004361060325760003560e01c806327436b59146037578063297a1f5614604f575b600080fd5b603d6055565b60408051918252519081900360200190f35b603d605b565b60005490565b6000548156fea265627a7a723158207ea05d2aadc3e731861ba887c215ebdd039d020d9a4b0af5d429fd6e96c2cb2664736f6c63430005100032",
  "source": "pragma solidity ^0.5.16;\r\n\r\ncontract car {\r\n    uint public carCount = 1;\r\n\r\n    function getCarCount() public returns (uint) {\r\n        return carCount;\r\n    }\r\n}",
  "sourcePath": "C:\\Users\\kevin\\Desktop\\carRent\\contracts\\car.sol",
  "compiler": {
    "name": "solc",
    "version": "0.5.16+commit.9c3226ce.Emscripten.clang"
  },
  "schemaVersion": "3.4.16",
  "updatedAt": "2023-09-26T12:20:07.018Z",
  "networkType": "ethereum",
  "devdoc": {
    "methods": {}
  },
  "userdoc": {
    "methods": {}
  }
}