{
  "contractName": "carRent",
  "abi": [
    {
      "inputs": [],
      "payable": false,
      "stateMutability": "nonpayable",
      "type": "constructor"
    },
    {
      "anonymous": false,
      "inputs": [
        {
          "indexed": false,
          "internalType": "uint256",
          "name": "id",
          "type": "uint256"
        },
        {
          "indexed": false,
          "internalType": "string",
          "name": "name",
          "type": "string"
        },
        {
          "indexed": false,
          "internalType": "bool",
          "name": "rented",
          "type": "bool"
        }
      ],
      "name": "CarCreated",
      "type": "event"
    },
    {
      "anonymous": false,
      "inputs": [
        {
          "indexed": false,
          "internalType": "uint256",
          "name": "id",
          "type": "uint256"
        },
        {
          "indexed": false,
          "internalType": "bool",
          "name": "rented",
          "type": "bool"
        }
      ],
      "name": "carRented",
      "type": "event"
    },
    {
      "constant": true,
      "inputs": [],
      "name": "carCount",
      "outputs": [
        {
          "internalType": "uint256",
          "name": "",
          "type": "uint256"
        }
      ],
      "payable": false,
      "stateMutability": "view",
      "type": "function"
    },
    {
      "constant": true,
      "inputs": [
        {
          "internalType": "uint256",
          "name": "",
          "type": "uint256"
        }
      ],
      "name": "cars",
      "outputs": [
        {
          "internalType": "uint256",
          "name": "id",
          "type": "uint256"
        },
        {
          "internalType": "string",
          "name": "name",
          "type": "string"
        },
        {
          "internalType": "bool",
          "name": "rented",
          "type": "bool"
        }
      ],
      "payable": false,
      "stateMutability": "view",
      "type": "function"
    },
    {
      "constant": false,
      "inputs": [
        {
          "internalType": "string",
          "name": "_content",
          "type": "string"
        }
      ],
      "name": "createCar",
      "outputs": [],
      "payable": false,
      "stateMutability": "nonpayable",
      "type": "function"
    },
    {
      "constant": false,
      "inputs": [
        {
          "internalType": "uint256",
          "name": "_id",
          "type": "uint256"
        }
      ],
      "name": "toggleRented",
      "outputs": [],
      "payable": false,
      "stateMutability": "nonpayable",
      "type": "function"
    }
  ],
  "bytecode": "0x60806040526000805534801561001457600080fd5b5060408051808201909152600a815269546f796f7461204d523360b01b6020820152610048906001600160e01b0361004d16565b61020c565b600080546001908101808355604080516060810182528281526020808201878152828401879052938652848152919094208451815591518051929361009a93908501929190910190610171565b5060408201518160020160006101000a81548160ff0219169083151502179055509050507f209f05211e5963cbd73b3ec59af219d9f45097be52a06c018e0d817ae7e845d5600054826000604051808481526020018060200183151515158152602001828103825284818151815260200191508051906020019080838360005b8381101561013257818101518382015260200161011a565b50505050905090810190601f16801561015f5780820380516001836020036101000a031916815260200191505b5094505050505060405180910390a150565b828054600181600116156101000203166002900490600052602060002090601f016020900481019282601f106101b257805160ff19168380011785556101df565b828001600101855582156101df579182015b828111156101df5782518255916020019190600101906101c4565b506101eb9291506101ef565b5090565b61020991905b808211156101eb57600081556001016101f5565b90565b6106038061021b6000396000f3fe608060405234801561001057600080fd5b506004361061004c5760003560e01c8063297a1f5614610051578063ede6fbf51461006b578063f7746e3614610113578063f98288a8146101ba575b600080fd5b6100596101d7565b60408051918252519081900360200190f35b6101116004803603602081101561008157600080fd5b81019060208101813564010000000081111561009c57600080fd5b8201836020820111156100ae57600080fd5b803590602001918460018302840111640100000000831117156100d057600080fd5b91908080601f0160208091040260200160405190810160405280939291908181526020018383808284376000920191909152509295506101dd945050505050565b005b6101306004803603602081101561012957600080fd5b5035610301565b604051808481526020018060200183151515158152602001828103825284818151815260200191508051906020019080838360005b8381101561017d578181015183820152602001610165565b50505050905090810190601f1680156101aa5780820380516001836020036101000a031916815260200191505b5094505050505060405180910390f35b610111600480360360208110156101d057600080fd5b50356103b0565b60005481565b600080546001908101808355604080516060810182528281526020808201878152828401879052938652848152919094208451815591518051929361022a93908501929190910190610510565b5060408201518160020160006101000a81548160ff0219169083151502179055509050507f209f05211e5963cbd73b3ec59af219d9f45097be52a06c018e0d817ae7e845d5600054826000604051808481526020018060200183151515158152602001828103825284818151815260200191508051906020019080838360005b838110156102c25781810151838201526020016102aa565b50505050905090810190601f1680156102ef5780820380516001836020036101000a031916815260200191505b5094505050505060405180910390a150565b600160208181526000928352604092839020805481840180548651600296821615610100026000190190911695909504601f8101859004850286018501909652858552909491939290919083018282801561039d5780601f106103725761010080835404028352916020019161039d565b820191906000526020600020905b81548152906001019060200180831161038057829003601f168201915b5050506002909301549192505060ff1683565b6103b861058e565b60008281526001602081815260409283902083516060810185528154815281840180548651600296821615610100026000190190911695909504601f810185900485028601850190965285855290949193858401939092908301828280156104615780601f1061043657610100808354040283529160200191610461565b820191906000526020600020905b81548152906001019060200180831161044457829003601f168201915b50505091835250506002919091015460ff161515602091820152604080830180511590526000858152600180845291902083518155838301518051949550859491936104b293850192910190610510565b50604091820151600291909101805460ff1916911515919091179055818101518151848152901515602082015281517f9f6f04331b208d279009cc788dd9a4600b3b9fec37d0892e9bd3cf2b2777e002929181900390910190a15050565b828054600181600116156101000203166002900490600052602060002090601f016020900481019282601f1061055157805160ff191683800117855561057e565b8280016001018555821561057e579182015b8281111561057e578251825591602001919060010190610563565b5061058a9291506105b1565b5090565b604051806060016040528060008152602001606081526020016000151581525090565b6105cb91905b8082111561058a57600081556001016105b7565b9056fea265627a7a72315820e0cd5f38af3928a020cb99033b93b80f1e52b1789c25c0ad829d00e7fdb8f56664736f6c63430005100032",
  "source": "pragma solidity ^0.5.16;\r\n\r\ncontract carRent {\r\n    uint public carCount = 0;\r\n\r\n    struct Car {\r\n        uint id;\r\n        string name;\r\n        bool rented;\r\n    }\r\n\r\n    mapping(uint => Car) public cars;\r\n    \r\n    event CarCreated (\r\n        uint id,\r\n        string name,\r\n        bool rented\r\n    );\r\n\r\n    event carRented (\r\n        uint id,\r\n        bool rented\r\n    );\r\n\r\n    constructor () public {\r\n        createCar(\"Toyota MR3\");\r\n    }\r\n\r\n    function createCar(string memory _content) public {\r\n        carCount ++;\r\n        cars[carCount] = Car(carCount, _content, false);\r\n        emit CarCreated(carCount, _content, false);\r\n    }\r\n\r\n    function toggleRented (uint _id) public {\r\n        Car memory _car = cars[_id];\r\n        _car.rented =!_car.rented;\r\n        cars[_id] = _car;\r\n        emit carRented (_id, _car.rented);\r\n    }\r\n\r\n}",
  "sourcePath": "C:\\Users\\kevin\\Desktop\\carRent\\contracts\\carRent.sol",
  "compiler": {
    "name": "solc",
    "version": "0.5.16+commit.9c3226ce.Emscripten.clang"
  },
  "schemaVersion": "3.4.16",
  "updatedAt": "2023-09-26T14:08:49.061Z",
  "networkType": "ethereum",
  "devdoc": {
    "methods": {}
  },
  "userdoc": {
    "methods": {}
  }
}