{
  "contractName": "carRent",
  "abi": [
    {
      "inputs": [],
      "payable": false,
      "stateMutability": "nonpayable",
      "type": "constructor"
    },
    {
      "anonymous": false,
      "inputs": [
        {
          "indexed": false,
          "internalType": "uint256",
          "name": "id",
          "type": "uint256"
        },
        {
          "indexed": false,
          "internalType": "string",
          "name": "name",
          "type": "string"
        },
        {
          "indexed": false,
          "internalType": "uint256",
          "name": "driven",
          "type": "uint256"
        },
        {
          "indexed": false,
          "internalType": "bool",
          "name": "rented",
          "type": "bool"
        }
      ],
      "name": "CarCreated",
      "type": "event"
    },
    {
      "anonymous": false,
      "inputs": [
        {
          "indexed": false,
          "internalType": "uint256",
          "name": "id",
          "type": "uint256"
        },
        {
          "indexed": false,
          "internalType": "bool",
          "name": "rented",
          "type": "bool"
        }
      ],
      "name": "carRented",
      "type": "event"
    },
    {
      "constant": true,
      "inputs": [],
      "name": "carCount",
      "outputs": [
        {
          "internalType": "uint256",
          "name": "",
          "type": "uint256"
        }
      ],
      "payable": false,
      "stateMutability": "view",
      "type": "function"
    },
    {
      "constant": true,
      "inputs": [
        {
          "internalType": "uint256",
          "name": "",
          "type": "uint256"
        }
      ],
      "name": "cars",
      "outputs": [
        {
          "internalType": "uint256",
          "name": "id",
          "type": "uint256"
        },
        {
          "internalType": "string",
          "name": "name",
          "type": "string"
        },
        {
          "internalType": "uint256",
          "name": "driven",
          "type": "uint256"
        },
        {
          "internalType": "bool",
          "name": "rented",
          "type": "bool"
        }
      ],
      "payable": false,
      "stateMutability": "view",
      "type": "function"
    },
    {
      "constant": false,
      "inputs": [
        {
          "internalType": "string",
          "name": "_content",
          "type": "string"
        },
        {
          "internalType": "uint256",
          "name": "_driven",
          "type": "uint256"
        }
      ],
      "name": "createCar",
      "outputs": [],
      "payable": false,
      "stateMutability": "nonpayable",
      "type": "function"
    },
    {
      "constant": false,
      "inputs": [
        {
          "internalType": "uint256",
          "name": "_id",
          "type": "uint256"
        },
        {
          "internalType": "uint256",
          "name": "amount",
          "type": "uint256"
        }
      ],
      "name": "toggleRented",
      "outputs": [],
      "payable": true,
      "stateMutability": "payable",
      "type": "function"
    }
  ],
  "bytecode": "0x60806040526000805534801561001457600080fd5b5060408051808201909152600a815269546f796f7461204d523360b01b602082015261004a9060e66001600160e01b0361004f16565b610228565b6000805460019081018083556040805160808101825282815260208082018881528284018890526060830187905293865284815291909420845181559151805192936100a39390850192919091019061018d565b506040820151816002015560608201518160030160006101000a81548160ff0219169083151502179055509050507f8b90c3407df65d39094f8594b5f8d84304d8b282ea5a7ed6f62915523b7df03b60005483836000604051808581526020018060200184815260200183151515158152602001828103825285818151815260200191508051906020019080838360005b8381101561014c578181015183820152602001610134565b50505050905090810190601f1680156101795780820380516001836020036101000a031916815260200191505b509550505050505060405180910390a15050565b828054600181600116156101000203166002900490600052602060002090601f016020900481019282601f106101ce57805160ff19168380011785556101fb565b828001600101855582156101fb579182015b828111156101fb5782518255916020019190600101906101e0565b5061020792915061020b565b5090565b61022591905b808211156102075760008155600101610211565b90565b610669806102376000396000f3fe60806040526004361061003f5760003560e01c8063297a1f5614610044578063a030cd8f1461006b578063ecadf8b814610090578063f7746e3614610145575b600080fd5b34801561005057600080fd5b506100596101fd565b60408051918252519081900360200190f35b61008e6004803603604081101561008157600080fd5b5080359060200135610203565b005b34801561009c57600080fd5b5061008e600480360360408110156100b357600080fd5b8101906020810181356401000000008111156100ce57600080fd5b8201836020820111156100e057600080fd5b8035906020019184600183028401116401000000008311171561010257600080fd5b91908080601f016020809104026020016040519081016040528093929190818152602001838380828437600092019190915250929550509135925061037b915050565b34801561015157600080fd5b5061016f6004803603602081101561016857600080fd5b50356104b9565b60408051858152908101839052811515606082015260806020808301828152865192840192909252855160a084019187019080838360005b838110156101bf5781810151838201526020016101a7565b50505050905090810190601f1680156101ec5780820380516001836020036101000a031916815260200191505b509550505050505060405180910390f35b60005481565b61020b61056f565b60008381526001602081815260409283902083516080810185528154815281840180548651600296821615610100026000190190911695909504601f810185900485028601850190965285855290949193858401939092908301828280156102b45780601f10610289576101008083540402835291602001916102b4565b820191906000526020600020905b81548152906001019060200180831161029757829003601f168201915b5050509183525050600282015460208083019190915260039092015460ff16151560409182015260608301805115905260008681526001808452919020835181558383015180519495508594919361031193850192910190610599565b5060408281015160028301556060928301516003909201805460ff191692151592909217909155908201518151858152901515602082015281517f9f6f04331b208d279009cc788dd9a4600b3b9fec37d0892e9bd3cf2b2777e002929181900390910190a1505050565b6000805460019081018083556040805160808101825282815260208082018881528284018890526060830187905293865284815291909420845181559151805192936103cf93908501929190910190610599565b506040820151816002015560608201518160030160006101000a81548160ff0219169083151502179055509050507f8b90c3407df65d39094f8594b5f8d84304d8b282ea5a7ed6f62915523b7df03b60005483836000604051808581526020018060200184815260200183151515158152602001828103825285818151815260200191508051906020019080838360005b83811015610478578181015183820152602001610460565b50505050905090810190601f1680156104a55780820380516001836020036101000a031916815260200191505b509550505050505060405180910390a15050565b600160208181526000928352604092839020805481840180548651600296821615610100026000190190911695909504601f810185900485028601850190965285855290949193929091908301828280156105555780601f1061052a57610100808354040283529160200191610555565b820191906000526020600020905b81548152906001019060200180831161053857829003601f168201915b50505050600283015460039093015491929160ff16905084565b60405180608001604052806000815260200160608152602001600081526020016000151581525090565b828054600181600116156101000203166002900490600052602060002090601f016020900481019282601f106105da57805160ff1916838001178555610607565b82800160010185558215610607579182015b828111156106075782518255916020019190600101906105ec565b50610613929150610617565b5090565b61063191905b80821115610613576000815560010161061d565b9056fea265627a7a72315820c948f07246a690285943f3fc2d384fd753785bf5c9d160b996f8dee71896a7d264736f6c63430005100032",
  "source": "pragma solidity ^0.5.16;\r\n\r\ncontract carRent {\r\n    uint public carCount = 0;\r\n\r\n    struct Car {\r\n        uint id;\r\n        string name;\r\n        uint driven;\r\n        bool rented;\r\n    }\r\n\r\n    mapping(uint => Car) public cars;\r\n    \r\n    event CarCreated (\r\n        uint id,\r\n        string name,\r\n        uint driven,\r\n        bool rented\r\n    );\r\n\r\n    event carRented (\r\n        uint id,\r\n        bool rented\r\n    );\r\n\r\n    constructor () public {\r\n        createCar(\"Toyota MR3\", 230);\r\n    }\r\n\r\n    function createCar(string memory _content, uint _driven) public {\r\n        carCount ++;\r\n        cars[carCount] = Car(carCount, _content, _driven, false);\r\n        emit CarCreated(carCount, _content, _driven, false);\r\n    }\r\n\r\n    function toggleRented (uint _id, uint amount) public payable {\r\n        Car memory _car = cars[_id];\r\n        _car.rented =!_car.rented;\r\n        cars[_id] = _car;\r\n        emit carRented (_id, _car.rented);\r\n    }\r\n\r\n}",
  "sourcePath": "C:\\Users\\kevin\\Desktop\\carRent\\contracts\\carRent.sol",
  "compiler": {
    "name": "solc",
    "version": "0.5.16+commit.9c3226ce.Emscripten.clang"
  },
  "schemaVersion": "3.4.16",
  "updatedAt": "2023-10-18T15:24:19.638Z",
  "networkType": "ethereum",
  "devdoc": {
    "methods": {}
  },
  "userdoc": {
    "methods": {}
  }
}